{
  "contractName": "abAuction",
  "abi": [
    {
      "constant": true,
      "inputs": [],
      "name": "ended",
      "outputs": [
        {
          "name": "",
          "type": "bool"
        }
      ],
      "payable": false,
      "stateMutability": "view",
      "type": "function",
      "signature": "0x12fa6feb"
    },
    {
      "constant": true,
      "inputs": [],
      "name": "userCost",
      "outputs": [
        {
          "name": "",
          "type": "uint256"
        }
      ],
      "payable": false,
      "stateMutability": "view",
      "type": "function",
      "signature": "0x15337f0a"
    },
    {
      "constant": true,
      "inputs": [],
      "name": "beneficiary",
      "outputs": [
        {
          "name": "",
          "type": "address"
        }
      ],
      "payable": false,
      "stateMutability": "view",
      "type": "function",
      "signature": "0x38af3eed"
    },
    {
      "constant": true,
      "inputs": [],
      "name": "minDeposit",
      "outputs": [
        {
          "name": "",
          "type": "uint256"
        }
      ],
      "payable": false,
      "stateMutability": "view",
      "type": "function",
      "signature": "0x41b3d185"
    },
    {
      "constant": true,
      "inputs": [],
      "name": "biddingEnd",
      "outputs": [
        {
          "name": "",
          "type": "uint256"
        }
      ],
      "payable": false,
      "stateMutability": "view",
      "type": "function",
      "signature": "0x423b217f"
    },
    {
      "constant": true,
      "inputs": [],
      "name": "revealEnd",
      "outputs": [
        {
          "name": "",
          "type": "uint256"
        }
      ],
      "payable": false,
      "stateMutability": "view",
      "type": "function",
      "signature": "0xa6e66477"
    },
    {
      "constant": true,
      "inputs": [
        {
          "name": "",
          "type": "address"
        }
      ],
      "name": "addressToBid",
      "outputs": [
        {
          "name": "hashedBid",
          "type": "bytes32"
        },
        {
          "name": "bidValue",
          "type": "uint256"
        },
        {
          "name": "days2Finish",
          "type": "uint16"
        },
        {
          "name": "isBidRevealed",
          "type": "bool"
        },
        {
          "name": "bidder",
          "type": "address"
        },
        {
          "name": "depositVal",
          "type": "uint256"
        },
        {
          "name": "isAllowedToWithdraw",
          "type": "bool"
        }
      ],
      "payable": false,
      "stateMutability": "view",
      "type": "function",
      "signature": "0xceeb4baa"
    },
    {
      "inputs": [
        {
          "name": "_biddingTime",
          "type": "uint256"
        },
        {
          "name": "_revealTime",
          "type": "uint256"
        },
        {
          "name": "_beneficiary",
          "type": "address"
        },
        {
          "name": "_userCost",
          "type": "uint256"
        },
        {
          "name": "_minDeposit",
          "type": "uint256"
        }
      ],
      "payable": false,
      "stateMutability": "nonpayable",
      "type": "constructor",
      "signature": "constructor"
    },
    {
      "constant": false,
      "inputs": [
        {
          "name": "hashedBid",
          "type": "bytes32"
        }
      ],
      "name": "placeBid",
      "outputs": [],
      "payable": true,
      "stateMutability": "payable",
      "type": "function",
      "signature": "0x497ecfc5"
    },
    {
      "constant": true,
      "inputs": [
        {
          "name": "bidValue",
          "type": "uint256"
        },
        {
          "name": "days2Finish",
          "type": "uint16"
        }
      ],
      "name": "calculateHashForBid",
      "outputs": [
        {
          "name": "",
          "type": "bytes32"
        }
      ],
      "payable": false,
      "stateMutability": "pure",
      "type": "function",
      "signature": "0xf4a24cc6"
    },
    {
      "constant": true,
      "inputs": [
        {
          "name": "bidValue",
          "type": "uint256"
        },
        {
          "name": "days2Finish",
          "type": "uint256"
        }
      ],
      "name": "score",
      "outputs": [
        {
          "name": "",
          "type": "uint256"
        }
      ],
      "payable": false,
      "stateMutability": "view",
      "type": "function",
      "signature": "0xb445e7a1"
    },
    {
      "constant": false,
      "inputs": [
        {
          "name": "bidCost",
          "type": "uint256"
        },
        {
          "name": "bidTime",
          "type": "uint16"
        }
      ],
      "name": "revealBid",
      "outputs": [],
      "payable": false,
      "stateMutability": "nonpayable",
      "type": "function",
      "signature": "0x44672f56"
    },
    {
      "constant": false,
      "inputs": [],
      "name": "awardContract",
      "outputs": [],
      "payable": false,
      "stateMutability": "nonpayable",
      "type": "function",
      "signature": "0x865f8cae"
    },
    {
      "constant": false,
      "inputs": [],
      "name": "returnWinnerDeposit",
      "outputs": [],
      "payable": false,
      "stateMutability": "nonpayable",
      "type": "function",
      "signature": "0x5291a2c1"
    },
    {
      "constant": true,
      "inputs": [],
      "name": "getCurrentTime",
      "outputs": [
        {
          "name": "",
          "type": "uint256"
        }
      ],
      "payable": false,
      "stateMutability": "view",
      "type": "function",
      "signature": "0x29cb924d"
    },
    {
      "constant": true,
      "inputs": [],
      "name": "winBid",
      "outputs": [
        {
          "name": "",
          "type": "uint256"
        },
        {
          "name": "",
          "type": "uint256"
        },
        {
          "name": "",
          "type": "address"
        }
      ],
      "payable": false,
      "stateMutability": "view",
      "type": "function",
      "signature": "0xb2b8f959"
    }
  ],
  "bytecode": "0x6080604052633b9aca00600c5534801561001857600080fd5b5060405160a0806111db833981018060405260a081101561003857600080fd5b81019080805190602001909291908051906020019092919080519060200190929190805190602001909291908051906020019092919050505082600660006101000a81548173ffffffffffffffffffffffffffffffffffffffff021916908373ffffffffffffffffffffffffffffffffffffffff160217905550844201600781905550836007540160088190555081600a8190555080600b8190555050505050506110f3806100e86000396000f3fe6080604052600436106100db576000357c0100000000000000000000000000000000000000000000000000000000900463ffffffff16806312fa6feb146100e057806315337f0a1461010f57806329cb924d1461013a57806338af3eed1461016557806341b3d185146101bc578063423b217f146101e757806344672f5614610212578063497ecfc51461025b5780635291a2c114610289578063865f8cae146102a0578063a6e66477146102b7578063b2b8f959146102e2578063b445e7a114610347578063ceeb4baa146103a0578063f4a24cc61461046b575b600080fd5b3480156100ec57600080fd5b506100f56104c8565b604051808215151515815260200191505060405180910390f35b34801561011b57600080fd5b506101246104db565b6040518082815260200191505060405180910390f35b34801561014657600080fd5b5061014f6104e1565b6040518082815260200191505060405180910390f35b34801561017157600080fd5b5061017a6104e9565b604051808273ffffffffffffffffffffffffffffffffffffffff1673ffffffffffffffffffffffffffffffffffffffff16815260200191505060405180910390f35b3480156101c857600080fd5b506101d161050f565b6040518082815260200191505060405180910390f35b3480156101f357600080fd5b506101fc610515565b6040518082815260200191505060405180910390f35b34801561021e57600080fd5b506102596004803603604081101561023557600080fd5b8101908080359060200190929190803561ffff16906020019092919050505061051b565b005b6102876004803603602081101561027157600080fd5b8101908080359060200190929190505050610851565b005b34801561029557600080fd5b5061029e610c82565b005b3480156102ac57600080fd5b506102b5610d40565b005b3480156102c357600080fd5b506102cc610f0c565b6040518082815260200191505060405180910390f35b3480156102ee57600080fd5b506102f7610f12565b604051808481526020018381526020018273ffffffffffffffffffffffffffffffffffffffff1673ffffffffffffffffffffffffffffffffffffffff168152602001935050505060405180910390f35b34801561035357600080fd5b5061038a6004803603604081101561036a57600080fd5b810190808035906020019092919080359060200190929190505050610f6b565b6040518082815260200191505060405180910390f35b3480156103ac57600080fd5b506103ef600480360360208110156103c357600080fd5b81019080803573ffffffffffffffffffffffffffffffffffffffff169060200190929190505050610f7c565b604051808881526020018781526020018661ffff1661ffff168152602001851515151581526020018473ffffffffffffffffffffffffffffffffffffffff1673ffffffffffffffffffffffffffffffffffffffff1681526020018381526020018215151515815260200197505050505050505060405180910390f35b34801561047757600080fd5b506104b26004803603604081101561048e57600080fd5b8101908080359060200190929190803561ffff169060200190929190505050611006565b6040518082815260200191505060405180910390f35b600960009054906101000a900460ff1681565b600a5481565b600042905090565b600660009054906101000a900473ffffffffffffffffffffffffffffffffffffffff1681565b600b5481565b60075481565b6007544211151561052b57600080fd5b6008544210151561053b57600080fd5b6000600d60003373ffffffffffffffffffffffffffffffffffffffff1673ffffffffffffffffffffffffffffffffffffffff16815260200190815260200160002060020160039054906101000a900473ffffffffffffffffffffffffffffffffffffffff169050600d60003373ffffffffffffffffffffffffffffffffffffffff1673ffffffffffffffffffffffffffffffffffffffff168152602001908152602001600020600001546105ef8484611006565b141515610664576040517f08c379a000000000000000000000000000000000000000000000000000000000815260040180806020018281038252601b8152602001807f6572726f723a2068617368657320646f206e6f74206d617463682e000000000081525060200191505060405180910390fd5b6000600d60008373ffffffffffffffffffffffffffffffffffffffff1673ffffffffffffffffffffffffffffffffffffffff1681526020019081526020016000209050838160010181905550828160020160006101000a81548161ffff021916908361ffff16021790555060018160020160026101000a81548160ff02191690831515021790555060006106fc858561ffff16610f6b565b9050600c5481101561084a5781600160008201548160000155600182015481600101556002820160009054906101000a900461ffff168160020160006101000a81548161ffff021916908361ffff1602179055506002820160029054906101000a900460ff168160020160026101000a81548160ff0219169083151502179055506002820160039054906101000a900473ffffffffffffffffffffffffffffffffffffffff168160020160036101000a81548173ffffffffffffffffffffffffffffffffffffffff021916908373ffffffffffffffffffffffffffffffffffffffff160217905550600382015481600301556004820160009054906101000a900460ff168160040160006101000a81548160ff0219169083151502179055509050506108436001800154600160020160009054906101000a900461ffff1661ffff16610f6b565b600c819055505b5050505050565b6007544210151561086157600080fd5b6000600d60003373ffffffffffffffffffffffffffffffffffffffff1673ffffffffffffffffffffffffffffffffffffffff16815260200190815260200160002060030154141515610941576040517f08c379a00000000000000000000000000000000000000000000000000000000081526004018080602001828103825260228152602001807f6572726f723a2063616e6e6f7420706c616365206d756c7469706c652062696481526020017f732e00000000000000000000000000000000000000000000000000000000000081525060400191505060405180910390fd5b600b54341115156109ba576040517f08c379a000000000000000000000000000000000000000000000000000000000815260040180806020018281038252601f8152602001807f6572726f723a204d696e696d756d204465706f736974206e6f74206d65742e0081525060200191505060405180910390fd5b6109c2611068565b8181600001818152505033816080019073ffffffffffffffffffffffffffffffffffffffff16908173ffffffffffffffffffffffffffffffffffffffff1681525050348160a001818152505060008190806001815401808255809150509060018203906000526020600020906005020160009091929091909150600082015181600001556020820151816001015560408201518160020160006101000a81548161ffff021916908361ffff16021790555060608201518160020160026101000a81548160ff02191690831515021790555060808201518160020160036101000a81548173ffffffffffffffffffffffffffffffffffffffff021916908373ffffffffffffffffffffffffffffffffffffffff16021790555060a0820151816003015560c08201518160040160006101000a81548160ff0219169083151502179055505050506000600160008054905003815481101515610b1e57fe5b9060005260206000209060050201600d60003373ffffffffffffffffffffffffffffffffffffffff1673ffffffffffffffffffffffffffffffffffffffff16815260200190815260200160002060008201548160000155600182015481600101556002820160009054906101000a900461ffff168160020160006101000a81548161ffff021916908361ffff1602179055506002820160029054906101000a900460ff168160020160026101000a81548160ff0219169083151502179055506002820160039054906101000a900473ffffffffffffffffffffffffffffffffffffffff168160020160036101000a81548173ffffffffffffffffffffffffffffffffffffffff021916908373ffffffffffffffffffffffffffffffffffffffff160217905550600382015481600301556004820160009054906101000a900460ff168160040160006101000a81548160ff0219169083151502179055509050505050565b600660009054906101000a900473ffffffffffffffffffffffffffffffffffffffff1673ffffffffffffffffffffffffffffffffffffffff163373ffffffffffffffffffffffffffffffffffffffff16141515610cde57600080fd5b600160020160039054906101000a900473ffffffffffffffffffffffffffffffffffffffff1673ffffffffffffffffffffffffffffffffffffffff166108fc6001600301549081150290604051600060405180830381858888f1935050505050565b600660009054906101000a900473ffffffffffffffffffffffffffffffffffffffff1673ffffffffffffffffffffffffffffffffffffffff163373ffffffffffffffffffffffffffffffffffffffff16141515610d9c57600080fd5b60085442111515610dac57600080fd5b60008090505b6000805490508160ff161015610f0957600160020160039054906101000a900473ffffffffffffffffffffffffffffffffffffffff1673ffffffffffffffffffffffffffffffffffffffff1660008260ff16815481101515610e1057fe5b906000526020600020906005020160020160039054906101000a900473ffffffffffffffffffffffffffffffffffffffff1673ffffffffffffffffffffffffffffffffffffffff16141515610efc5760008160ff16815481101515610e7157fe5b906000526020600020906005020160020160039054906101000a900473ffffffffffffffffffffffffffffffffffffffff1673ffffffffffffffffffffffffffffffffffffffff166108fc60008360ff16815481101515610ece57fe5b9060005260206000209060050201600301549081150290604051600060405180830381858888f19350505050505b8080600101915050610db2565b50565b60085481565b60008060006001800154600160020160009054906101000a900461ffff16600160020160039054906101000a900473ffffffffffffffffffffffffffffffffffffffff168161ffff169150809050925092509250909192565b600081600a54028301905092915050565b600d6020528060005260406000206000915090508060000154908060010154908060020160009054906101000a900461ffff16908060020160029054906101000a900460ff16908060020160039054906101000a900473ffffffffffffffffffffffffffffffffffffffff16908060030154908060040160009054906101000a900460ff16905087565b60008282604051602001808381526020018261ffff1661ffff167e010000000000000000000000000000000000000000000000000000000000000281526002019250505060405160208183030381529060405280519060200120905092915050565b60e0604051908101604052806000801916815260200160008152602001600061ffff168152602001600015158152602001600073ffffffffffffffffffffffffffffffffffffffff16815260200160008152602001600015158152509056fea165627a7a7230582035995d65ad719807a5ff958c1717ee51992ee7322b324f5f27b546241abbc8920029",
  "source": "pragma solidity ^0.5.0; //0.5.0 for Truffle\n\ncontract abAuction{\n    \n    struct Bid {\n        bytes32 hashedBid;\n        uint256 bidValue;\n        uint16 days2Finish; //limited small integer range (2^16 -1), not so small\n        bool isBidRevealed; //default is false\n        address payable bidder; //msg.sender\n        uint depositVal; //bid deposit\n        bool isAllowedToWithdraw; //for those not selected\n    }\n    /*\n    store all bids in an array, even though it is bad practice to use arrays in general.\n    Going thru all array elements is expensive. \n    If we do not have a dynamic data store, then it's hard to solve the problem \n    (keeping track of bids).\n    */ \n    Bid[] private allBids; //dyn. aray\n    \n    Bid private topBid; //keep track of winning bid (private?) //initialized to zero. So score is 0?\n       \n    address payable public beneficiary; //seller (or buyer in procurement auction).\n    uint public biddingEnd; //time limit for last bid\n    uint public revealEnd; //time limit to reveal bids\n    bool public ended; //indicate auction is over (default if false)\n    uint public userCost; //\n    uint public minDeposit; // moved to constructor\n    \n    uint topScore = 1000000000; //initial score to beat (in a seller's auction, this could be 0)\n    //track if someone has placed a bid at all\n    mapping(address => Bid) public addressToBid;\n    \n    //modifiers\n    modifier onlyBiddingPeriod(){\n        require(now < biddingEnd);   //WARN: 'now' is alias for block.timestamp, does not mean current time.   \n        _;\n    }\n\n    modifier onlyRevealPeriod(){\n        require(now > biddingEnd);\n        require(now < revealEnd); //don't allow revelation after period is over\n        _;\n    }\n    \n    modifier onlySelectionPhase(){\n        require(now > revealEnd); //select anytime after revealEnd\n        _;\n    }\n    \n    modifier onlyBeneficiary(){\n        require(msg.sender == beneficiary);\n        _;\n    }\n    \n    //constructor: needs to be initialized (e.g. through 2_deploy_contracts or instance = Contract.new() on truffle console)\n    constructor(\n        uint _biddingTime,\n        uint _revealTime,\n        address payable _beneficiary,\n        uint _userCost,\n        uint _minDeposit\n    ) public {\n        beneficiary = _beneficiary;\n        biddingEnd = now + _biddingTime;\n        revealEnd = biddingEnd + _revealTime;\n        userCost = _userCost;\n        minDeposit = _minDeposit;\n    }\n    \n    // Bidding Phase (bids are encrypted)\n    // do not store the unhashed values on chain!\n    function placeBid(bytes32 hashedBid) onlyBiddingPeriod public payable {\n        //input validation\n        require(addressToBid[msg.sender].depositVal == 0, \"error: cannot place multiple bids.\");\n        require(msg.value > minDeposit, \"error: Minimum Deposit not met.\");\n        //temporarily store Bid\n        Bid memory newBid; //allocate memory for this instance \"newBid\" of type Bid\n        //store data on chain\n        newBid.hashedBid = hashedBid; //saved on chain\n        newBid.bidder = msg.sender; //saved to \n        newBid.depositVal= msg.value; //saved on chain\n        allBids.push(newBid); //saved on chain\n        addressToBid[msg.sender] = allBids[allBids.length-1]; //saved on chain\n    }\n    function calculateHashForBid(uint256 bidValue, uint16 days2Finish) public pure returns (bytes32) {\n        return keccak256(abi.encodePacked(bidValue, days2Finish));\n    }\n    \n    // Scoring rule\n    function score(uint bidValue, uint days2Finish) public view returns (uint){\n        return bidValue + (userCost * days2Finish);\n    }\n    \n\n    // Bid Reveal phase\n    function revealBid(uint256 bidCost, uint16 bidTime) onlyRevealPeriod public {\n        //validate inputs: hashes should match\n        address revealer = addressToBid[msg.sender].bidder;\n        //\"might\" not be able to compare 2 bytes32's \n        require(calculateHashForBid(bidCost, bidTime) == addressToBid[msg.sender].hashedBid, \"error: hashes do not match.\");\n           \n        //update storage\n        Bid storage currentBid = addressToBid[revealer];\n        currentBid.bidValue = bidCost;\n        currentBid.days2Finish = bidTime;\n        currentBid.isBidRevealed = true;\n        \n        //rank determination\n        uint scoreCurrentBid = score(bidCost, bidTime);\n        if (scoreCurrentBid < topScore) { //lower score wins here\n            topBid = currentBid;    //assignment of structs in storage may be problematic\n            topScore = score(topBid.bidValue,topBid.days2Finish); //from now on..\n        }            \n    }\n    \n    // Selection phase: \n    //WARNING: TODO* \n    //This should either be an internal function, so the money is returned from the contract, \n    // or the contract should transfer the funds to the beneficiary.\n    function awardContract() onlyBeneficiary onlySelectionPhase public  {\n        //verify inputs: not needed at present (and taken care of by modifiers)\n        \n        //return deposts of everyone (except winner)\n        //WARN: uint8 implies #bidders < 255!\n        for (uint8 i=0; i < allBids.length; i++) {\n            if (allBids[i].bidder != topBid.bidder){\n            allBids[i].bidder.send(allBids[i].depositVal); //ignore send failure.\n            /* if a single 'transfer' fails, then all previous transfers are reverted,\n            meaning people will not get their deposits back. Use 'send' instead.\n            */\n            }\n        }\n        \n        //assuming winner is not paid (that happens off chain) \n    }    \n    \n    // function to return winner's deposit (eventually)\n    function returnWinnerDeposit() onlyBeneficiary public {\n    topBid.bidder.send(topBid.depositVal);    \n    }\n    \n    //Use: debugging to estimate run time certain steps are taking.\n    function getCurrentTime() public view returns(uint) {return now;}\n    \n    //function getCurrentTimePlus1Week() public view returns(uint) {return now + 1 weeks;}\n\n    // return string from bid struct for winning bid\n    function winBid() public view returns (uint, uint, address) {\n        return (topBid.bidValue, topBid.days2Finish, topBid.bidder);\n    }\n}",
  "sourcePath": "/Users/shreemoy/Documents/DC/examples/multiVarAuction/contracts/abAuction.sol",
  "compiler": {
    "name": "solc",
    "version": "0.5.0+commit.1d4f565a.Emscripten.clang"
  },
  "schemaVersion": "3.0.6",
  "updatedAt": "2019-04-09T20:59:32.921Z",
  "devdoc": {
    "methods": {}
  },
  "userdoc": {
    "methods": {}
  }
}