{
  "contractName": "cptAuction",
  "abi": [
    {
      "constant": true,
      "inputs": [],
      "name": "ended",
      "outputs": [
        {
          "name": "",
          "type": "bool"
        }
      ],
      "payable": false,
      "stateMutability": "view",
      "type": "function",
      "signature": "0x12fa6feb"
    },
    {
      "constant": true,
      "inputs": [],
      "name": "userCost",
      "outputs": [
        {
          "name": "",
          "type": "uint256"
        }
      ],
      "payable": false,
      "stateMutability": "view",
      "type": "function",
      "signature": "0x15337f0a"
    },
    {
      "constant": true,
      "inputs": [],
      "name": "beneficiary",
      "outputs": [
        {
          "name": "",
          "type": "address"
        }
      ],
      "payable": false,
      "stateMutability": "view",
      "type": "function",
      "signature": "0x38af3eed"
    },
    {
      "constant": true,
      "inputs": [],
      "name": "minDeposit",
      "outputs": [
        {
          "name": "",
          "type": "uint256"
        }
      ],
      "payable": false,
      "stateMutability": "view",
      "type": "function",
      "signature": "0x41b3d185"
    },
    {
      "constant": true,
      "inputs": [],
      "name": "biddingEnd",
      "outputs": [
        {
          "name": "",
          "type": "uint256"
        }
      ],
      "payable": false,
      "stateMutability": "view",
      "type": "function",
      "signature": "0x423b217f"
    },
    {
      "constant": true,
      "inputs": [],
      "name": "revealEnd",
      "outputs": [
        {
          "name": "",
          "type": "uint256"
        }
      ],
      "payable": false,
      "stateMutability": "view",
      "type": "function",
      "signature": "0xa6e66477"
    },
    {
      "constant": true,
      "inputs": [
        {
          "name": "",
          "type": "address"
        }
      ],
      "name": "addressToBid",
      "outputs": [
        {
          "name": "hashedBid",
          "type": "bytes32"
        },
        {
          "name": "bidValue",
          "type": "uint256"
        },
        {
          "name": "time2Finish",
          "type": "uint16"
        },
        {
          "name": "bidderSalt",
          "type": "bytes32"
        },
        {
          "name": "isBidRevealed",
          "type": "bool"
        },
        {
          "name": "bidder",
          "type": "address"
        },
        {
          "name": "depositVal",
          "type": "uint256"
        },
        {
          "name": "isAllowedToWithdraw",
          "type": "bool"
        }
      ],
      "payable": false,
      "stateMutability": "view",
      "type": "function",
      "signature": "0xceeb4baa"
    },
    {
      "inputs": [
        {
          "name": "_biddingTime",
          "type": "uint256"
        },
        {
          "name": "_revealTime",
          "type": "uint256"
        },
        {
          "name": "_beneficiary",
          "type": "address"
        },
        {
          "name": "_userCost",
          "type": "uint256"
        },
        {
          "name": "_minDeposit",
          "type": "uint256"
        }
      ],
      "payable": false,
      "stateMutability": "nonpayable",
      "type": "constructor",
      "signature": "constructor"
    },
    {
      "constant": true,
      "inputs": [
        {
          "name": "bidValue",
          "type": "uint256"
        },
        {
          "name": "time2Finish",
          "type": "uint16"
        },
        {
          "name": "bidderSalt",
          "type": "bytes32"
        }
      ],
      "name": "calculateHashForBid",
      "outputs": [
        {
          "name": "",
          "type": "bytes32"
        }
      ],
      "payable": false,
      "stateMutability": "pure",
      "type": "function",
      "signature": "0xedb73d9c"
    },
    {
      "constant": true,
      "inputs": [
        {
          "name": "bidValue",
          "type": "uint256"
        },
        {
          "name": "time2Finish",
          "type": "uint16"
        }
      ],
      "name": "score",
      "outputs": [
        {
          "name": "",
          "type": "uint256"
        }
      ],
      "payable": false,
      "stateMutability": "view",
      "type": "function",
      "signature": "0x5b90b32b"
    },
    {
      "constant": false,
      "inputs": [
        {
          "name": "hashedBid",
          "type": "bytes32"
        }
      ],
      "name": "placeBid",
      "outputs": [],
      "payable": true,
      "stateMutability": "payable",
      "type": "function",
      "signature": "0x497ecfc5"
    },
    {
      "constant": false,
      "inputs": [
        {
          "name": "bidCost",
          "type": "uint256"
        },
        {
          "name": "bidTime",
          "type": "uint16"
        },
        {
          "name": "bidSalt",
          "type": "bytes32"
        }
      ],
      "name": "revealBid",
      "outputs": [],
      "payable": false,
      "stateMutability": "nonpayable",
      "type": "function",
      "signature": "0xd7043a4d"
    },
    {
      "constant": false,
      "inputs": [],
      "name": "awardContract",
      "outputs": [],
      "payable": false,
      "stateMutability": "nonpayable",
      "type": "function",
      "signature": "0x865f8cae"
    },
    {
      "constant": false,
      "inputs": [],
      "name": "returnWinnerDeposit",
      "outputs": [],
      "payable": false,
      "stateMutability": "nonpayable",
      "type": "function",
      "signature": "0x5291a2c1"
    },
    {
      "constant": true,
      "inputs": [],
      "name": "getCurrentTime",
      "outputs": [
        {
          "name": "",
          "type": "uint256"
        }
      ],
      "payable": false,
      "stateMutability": "view",
      "type": "function",
      "signature": "0x29cb924d"
    },
    {
      "constant": true,
      "inputs": [],
      "name": "winBid",
      "outputs": [
        {
          "name": "",
          "type": "uint256"
        },
        {
          "name": "",
          "type": "uint256"
        },
        {
          "name": "",
          "type": "address"
        }
      ],
      "payable": false,
      "stateMutability": "view",
      "type": "function",
      "signature": "0xb2b8f959"
    }
  ],
  "bytecode": "0x6080604052633b9aca00600e5534801561001857600080fd5b5060405160a080611462833981018060405260a081101561003857600080fd5b81019080805190602001909291908051906020019092919080519060200190929190805190602001909291908051906020019092919050505082600860006101000a81548173ffffffffffffffffffffffffffffffffffffffff021916908373ffffffffffffffffffffffffffffffffffffffff1602179055508442016009819055508360095401600a8190555081600c8190555080600d81905550505050505061137a806100e86000396000f3fe6080604052600436106100db576000357c0100000000000000000000000000000000000000000000000000000000900463ffffffff16806312fa6feb146100e057806315337f0a1461010f57806329cb924d1461013a57806338af3eed1461016557806341b3d185146101bc578063423b217f146101e7578063497ecfc5146102125780635291a2c1146102405780635b90b32b14610257578063865f8cae146102b4578063a6e66477146102cb578063b2b8f959146102f6578063ceeb4baa1461035b578063d7043a4d1461042d578063edb73d9c14610480575b600080fd5b3480156100ec57600080fd5b506100f56104e7565b604051808215151515815260200191505060405180910390f35b34801561011b57600080fd5b506101246104fa565b6040518082815260200191505060405180910390f35b34801561014657600080fd5b5061014f610500565b6040518082815260200191505060405180910390f35b34801561017157600080fd5b5061017a610508565b604051808273ffffffffffffffffffffffffffffffffffffffff1673ffffffffffffffffffffffffffffffffffffffff16815260200191505060405180910390f35b3480156101c857600080fd5b506101d161052e565b6040518082815260200191505060405180910390f35b3480156101f357600080fd5b506101fc610534565b6040518082815260200191505060405180910390f35b61023e6004803603602081101561022857600080fd5b810190808035906020019092919050505061053a565b005b34801561024c57600080fd5b506102556109e8565b005b34801561026357600080fd5b5061029e6004803603604081101561027a57600080fd5b8101908080359060200190929190803561ffff169060200190929190505050610b0f565b6040518082815260200191505060405180910390f35b3480156102c057600080fd5b506102c9610b24565b005b3480156102d757600080fd5b506102e0610d49565b6040518082815260200191505060405180910390f35b34801561030257600080fd5b5061030b610d4f565b604051808481526020018381526020018273ffffffffffffffffffffffffffffffffffffffff1673ffffffffffffffffffffffffffffffffffffffff168152602001935050505060405180910390f35b34801561036757600080fd5b506103aa6004803603602081101561037e57600080fd5b81019080803573ffffffffffffffffffffffffffffffffffffffff169060200190929190505050610da8565b604051808981526020018881526020018761ffff1661ffff168152602001868152602001851515151581526020018473ffffffffffffffffffffffffffffffffffffffff1673ffffffffffffffffffffffffffffffffffffffff168152602001838152602001821515151581526020019850505050505050505060405180910390f35b34801561043957600080fd5b5061047e6004803603606081101561045057600080fd5b8101908080359060200190929190803561ffff16906020019092919080359060200190929190505050610e38565b005b34801561048c57600080fd5b506104d1600480360360608110156104a357600080fd5b8101908080359060200190929190803561ffff16906020019092919080359060200190929190505050611279565b6040518082815260200191505060405180910390f35b600b60009054906101000a900460ff1681565b600c5481565b600042905090565b600860009054906101000a900473ffffffffffffffffffffffffffffffffffffffff1681565b600d5481565b60095481565b600954421015156105b3576040517f08c379a000000000000000000000000000000000000000000000000000000000815260040180806020018281038252601a8152602001807f6572726f723a206e6f742062696464696e6720706572696f642e00000000000081525060200191505060405180910390fd5b6000600f60003373ffffffffffffffffffffffffffffffffffffffff1673ffffffffffffffffffffffffffffffffffffffff16815260200190815260200160002060050154141515610693576040517f08c379a000000000000000000000000000000000000000000000000000000000815260040180806020018281038252602a8152602001807f6572726f723a20626964646572732063616e6e6f7420706c616365206d756c7481526020017f69706c6520626964732e0000000000000000000000000000000000000000000081525060400191505060405180910390fd5b600d543411151561070c576040517f08c379a000000000000000000000000000000000000000000000000000000000815260040180806020018281038252601f8152602001807f6572726f723a204d696e696d756d204465706f736974206e6f74206d65742e0081525060200191505060405180910390fd5b6107146112e4565b81816000018181525050338160a0019073ffffffffffffffffffffffffffffffffffffffff16908173ffffffffffffffffffffffffffffffffffffffff1681525050348160c001818152505060008190806001815401808255809150509060018203906000526020600020906007020160009091929091909150600082015181600001556020820151816001015560408201518160020160006101000a81548161ffff021916908361ffff1602179055506060820151816003015560808201518160040160006101000a81548160ff02191690831515021790555060a08201518160040160016101000a81548173ffffffffffffffffffffffffffffffffffffffff021916908373ffffffffffffffffffffffffffffffffffffffff16021790555060c0820151816005015560e08201518160060160006101000a81548160ff021916908315150217905550505050600060016000805490500381548110151561087a57fe5b9060005260206000209060070201600f60003373ffffffffffffffffffffffffffffffffffffffff1673ffffffffffffffffffffffffffffffffffffffff16815260200190815260200160002060008201548160000155600182015481600101556002820160009054906101000a900461ffff168160020160006101000a81548161ffff021916908361ffff160217905550600382015481600301556004820160009054906101000a900460ff168160040160006101000a81548160ff0219169083151502179055506004820160019054906101000a900473ffffffffffffffffffffffffffffffffffffffff168160040160016101000a81548173ffffffffffffffffffffffffffffffffffffffff021916908373ffffffffffffffffffffffffffffffffffffffff160217905550600582015481600501556006820160009054906101000a900460ff168160060160006101000a81548160ff0219169083151502179055509050505050565b600860009054906101000a900473ffffffffffffffffffffffffffffffffffffffff1673ffffffffffffffffffffffffffffffffffffffff163373ffffffffffffffffffffffffffffffffffffffff16141515610aad576040517f08c379a000000000000000000000000000000000000000000000000000000000815260040180806020018281038252601b8152602001807f6572726f723a2073656e646572206e6f742062656e656669617279000000000081525060200191505060405180910390fd5b600160040160019054906101000a900473ffffffffffffffffffffffffffffffffffffffff1673ffffffffffffffffffffffffffffffffffffffff166108fc6001600501549081150290604051600060405180830381858888f1935050505050565b60008161ffff16600c54028301905092915050565b600860009054906101000a900473ffffffffffffffffffffffffffffffffffffffff1673ffffffffffffffffffffffffffffffffffffffff163373ffffffffffffffffffffffffffffffffffffffff16141515610be9576040517f08c379a000000000000000000000000000000000000000000000000000000000815260040180806020018281038252601b8152602001807f6572726f723a2073656e646572206e6f742062656e656669617279000000000081525060200191505060405180910390fd5b60008090505b6000805490508160ff161015610d4657600160040160019054906101000a900473ffffffffffffffffffffffffffffffffffffffff1673ffffffffffffffffffffffffffffffffffffffff1660008260ff16815481101515610c4d57fe5b906000526020600020906007020160040160019054906101000a900473ffffffffffffffffffffffffffffffffffffffff1673ffffffffffffffffffffffffffffffffffffffff16141515610d395760008160ff16815481101515610cae57fe5b906000526020600020906007020160040160019054906101000a900473ffffffffffffffffffffffffffffffffffffffff1673ffffffffffffffffffffffffffffffffffffffff166108fc60008360ff16815481101515610d0b57fe5b9060005260206000209060070201600501549081150290604051600060405180830381858888f19350505050505b8080600101915050610bef565b50565b600a5481565b60008060006001800154600160020160009054906101000a900461ffff16600160040160019054906101000a900473ffffffffffffffffffffffffffffffffffffffff168161ffff169150809050925092509250909192565b600f6020528060005260406000206000915090508060000154908060010154908060020160009054906101000a900461ffff16908060030154908060040160009054906101000a900460ff16908060040160019054906101000a900473ffffffffffffffffffffffffffffffffffffffff16908060050154908060060160009054906101000a900460ff16905088565b60095442111515610ed7576040517f08c379a00000000000000000000000000000000000000000000000000000000081526004018080602001828103825260258152602001807f6572726f723a206e6f742072657665616c20706572696f642028746f6f20656181526020017f726c79292e00000000000000000000000000000000000000000000000000000081525060400191505060405180910390fd5b600a5442101515610f76576040517f08c379a00000000000000000000000000000000000000000000000000000000081526004018080602001828103825260238152602001807f6572726f723a206e6f742072657665616c20706572696f64202865787069726581526020017f64292e000000000000000000000000000000000000000000000000000000000081525060400191505060405180910390fd5b6000600f60003373ffffffffffffffffffffffffffffffffffffffff1673ffffffffffffffffffffffffffffffffffffffff16815260200190815260200160002060040160019054906101000a900473ffffffffffffffffffffffffffffffffffffffff169050600f60003373ffffffffffffffffffffffffffffffffffffffff1673ffffffffffffffffffffffffffffffffffffffff1681526020019081526020016000206000015461102b858585611279565b1415156110a0576040517f08c379a000000000000000000000000000000000000000000000000000000000815260040180806020018281038252601b8152602001807f6572726f723a2068617368657320646f206e6f74206d617463682e000000000081525060200191505060405180910390fd5b6000600f60008373ffffffffffffffffffffffffffffffffffffffff1673ffffffffffffffffffffffffffffffffffffffff1681526020019081526020016000209050848160010181905550838160020160006101000a81548161ffff021916908361ffff16021790555082816003018190555060018160040160006101000a81548160ff021916908315150217905550600061113d8686610b0f565b9050600e548110156112715781600160008201548160000155600182015481600101556002820160009054906101000a900461ffff168160020160006101000a81548161ffff021916908361ffff160217905550600382015481600301556004820160009054906101000a900460ff168160040160006101000a81548160ff0219169083151502179055506004820160019054906101000a900473ffffffffffffffffffffffffffffffffffffffff168160040160016101000a81548173ffffffffffffffffffffffffffffffffffffffff021916908373ffffffffffffffffffffffffffffffffffffffff160217905550600582015481600501556006820160009054906101000a900460ff168160060160006101000a81548160ff02191690831515021790555090505080600e819055505b505050505050565b6000838383604051602001808481526020018361ffff1661ffff167e0100000000000000000000000000000000000000000000000000000000000002815260020182815260200193505050506040516020818303038152906040528051906020012090509392505050565b610100604051908101604052806000801916815260200160008152602001600061ffff16815260200160008019168152602001600015158152602001600073ffffffffffffffffffffffffffffffffffffffff16815260200160008152602001600015158152509056fea165627a7a7230582075e799d41b95f9e6ad2808ac48a5ee52c2840fa108c9fa8212db34d0177b14d90029",
  "source": "pragma solidity ^0.5.0; //0.5.0 for Truffle\n\n//Cost + Time procurement auction modified from Elliot's skeleton. Initial version based on Solidity docs was unnecessarily messy.\ncontract cptAuction{\n    \n    struct Bid {\n        bytes32 hashedBid;\n        uint256 bidValue;\n        uint16 time2Finish; //limited small integer range (2^16 -1), not so small\n        bytes32 bidderSalt; //to prevent rivals from brute forcing bid from hash\n        bool isBidRevealed; //default is false\n        address payable bidder; //msg.sender\n        uint256 depositVal; //bid deposit\n        bool isAllowedToWithdraw; //for those not selected, return deposits\n    }\n\n    // All of these 'state' variables can be accessed by anyone on a public blockchain. \n    // Private and internal ones can be indirectly accessed by poking around a contract's storage space.  \n    // The 'private' label only hides visibility from other 'contracts'.\n    // 'public' label simply creates automatic getter functions.\n    // the default is 'internal' i.e. visible only to contract and its derivatives.\n    \n    Bid[] private allBids; //dyn. aray // 'private': not visible to other contracts, but indirectly visible via contract's storage space.\n    \n    Bid private topBid; //keep track of winning bid (private?) //initialized to zero. So score is 0?\n   \n    address payable public beneficiary; //Buyer in procurement auction (seller in a regular auction)).\n    // payable? What should happen to funds in the contract? Contract should not have any funds left.\n\n    uint public biddingEnd; //time limit for last bid\n    uint public revealEnd; //time limit to reveal bids\n    bool public ended; //indicate auction is over (default if false)\n    uint public userCost; // social cost of delay\n    uint public minDeposit; // moved to constructor\n    \n    uint topScore = 1000000000; //initial score to beat (in a seller's auction, this could be a non zero reserve price)\n    \n    //mapping to track if someone has placed a bid at all\n    mapping(address => Bid) public addressToBid;\n    \n    //modifiers\n    modifier onlyBiddingPeriod(){\n        require(now < biddingEnd, \"error: not bidding period.\");   //WARN: 'now' is alias for block.timestamp, does not mean current time.   \n        _;\n    }\n\n    modifier onlyRevealPeriod(){\n        require(now > biddingEnd, \"error: not reveal period (too early).\");\n        require(now < revealEnd, \"error: not reveal period (expired).\"); //don't allow revelation after period is over\n        _;\n    }\n    \n    modifier onlySelectionPhase(){\n        require(now > revealEnd, \"error: not selection phase\"); //select anytime after revealEnd\n        _;\n    }\n    \n    modifier onlyBeneficiary(){\n        require(msg.sender == beneficiary, \"error: sender not benefiary\");\n        _;\n    }\n    \n    //constructor: needs to be initialized (e.g. through 2_deploy_contracts or instance = Contract.new() on truffle console)\n    constructor(\n        uint _biddingTime,\n        uint _revealTime,\n        address payable _beneficiary,\n        uint _userCost,\n        uint _minDeposit\n    ) public {\n        beneficiary = _beneficiary;\n        biddingEnd = now + _biddingTime;\n        revealEnd = biddingEnd + _revealTime;\n        userCost = _userCost;\n        minDeposit = _minDeposit;\n    }\n    \n    // Helper to compare hash of revealed bid with previously submitted hash (encrypted or sealed bid).\n    function calculateHashForBid(uint256 bidValue, uint16 time2Finish, bytes32 bidderSalt) public pure returns (bytes32) {\n        return keccak256(abi.encodePacked(bidValue, time2Finish, bidderSalt));\n    }\n    \n    // Scoring rule to rank bids\n    function score(uint256 bidValue, uint16 time2Finish) public view returns (uint){\n        return bidValue + (userCost * time2Finish);\n    }\n\n\n    // Bidding Phase: function to place a sealed (hashed) bid\n    function placeBid(bytes32 hashedBid) onlyBiddingPeriod public payable {\n        //input validation\n        require(addressToBid[msg.sender].depositVal == 0, \"error: bidders cannot place multiple bids.\"); // MOD: allow updates?  \n        require(msg.value > minDeposit, \"error: Minimum Deposit not met.\");\n        \n        //temporarily store Bid\n        Bid memory newBid; //allocate temporary memory for this instance of the struct call it newBid\n        //store data on chain\n        newBid.hashedBid = hashedBid; //saved on chain\n        newBid.bidder = msg.sender; //saved to \n        newBid.depositVal= msg.value; //saved on chain\n        \n        //now use this to update the dynamic array of sealed bids\n        allBids.push(newBid); //saved on chain (only the info we want stored)\n        // and update the mapping of address (bidders) who have already bid.\n        addressToBid[msg.sender] = allBids[allBids.length-1]; //set Bid for msg.Sender to latest entry in allBids\n    }\n    \n        \n    // Revealing bids (only during  reveal phase)\n    function revealBid(uint256 bidCost, uint16 bidTime, bytes32 bidSalt) onlyRevealPeriod public {\n        //validate inputs: hashes should match\n        address revealer = addressToBid[msg.sender].bidder; //find sender's hashed bid (from addressToBid), then exatract the identity (which should be same)\n        \n        //require(revealer == msg.sender, \"error: sender and bid revealer mismatch.\"); //should never happen.\n        //\"might\" not be able to compare 2 bytes32's \n        require(calculateHashForBid(bidCost, bidTime, bidSalt) == addressToBid[msg.sender].hashedBid, \"error: hashes do not match.\");\n           \n        //persistent storage\n        Bid storage currentBid = addressToBid[revealer]; // this instance of the struct is to be stored persistently, so use 'storage' not 'memory'.\n        currentBid.bidValue = bidCost;\n        currentBid.time2Finish = bidTime;\n        currentBid.bidderSalt = bidSalt; //no need to store this? Needed for verification, disputes.\n        currentBid.isBidRevealed = true;\n        \n        //rank determination:\n        /*\n        In this implementation, scoring and winner determination are done in one step. \n        Otherwise, we'd have to maintain all revealed bids in an array and rank them later. That would be wasteful.\n        */\n        uint scoreCurrentBid = score(bidCost, bidTime);\n        if (scoreCurrentBid < topScore) { //lower score wins here. In case of tie, first to reveal stays on top.\n            topBid = currentBid;    //assignment of structs in storage may be problematic\n            topScore = scoreCurrentBid; //score(topBid.bidValue,topBid.time2Finish); //from now on..\n        }            \n    }\n    \n    // Selection phase: \n    function awardContract() \n    onlyBeneficiary \n    //onlySelectionPhase //comment this out\n    public  {\n        //verify inputs: not needed at present (taken care of by modifiers)\n        \n        //return deposts of everyone (except winner)\n        //WARN: uint8 implies #bidders < 255!\n        for (uint8 i=0; i < allBids.length; i++) {\n            if (allBids[i].bidder != topBid.bidder){\n            // the send will transfer amounts from the contract's address (not the beneficiary's), \n            // however since benefiaciry calls this transaction, they pay the gas (not the contract). \n            allBids[i].bidder.send(allBids[i].depositVal); //ignore send failure.\n            /* if a single 'transfer' fails, then all previous transfers are reverted,\n            meaning people will not get their deposits back. Use 'send' instead.\n            */\n            }\n        }  \n        //assuming winner is not paid (that happens off chain) \n    }    \n    \n    // function to return winner's deposit (eventually)\n    function returnWinnerDeposit() onlyBeneficiary public {\n    topBid.bidder.send(topBid.depositVal);    \n    }\n    \n    //Use: debugging to estimate run time certain steps are taking.\n    function getCurrentTime() public view returns(uint) {return now;}\n    \n    //function getCurrentTimePlus1Week() public view returns(uint) {return now + 1 weeks;}\n\n    // return string from bid struct for winning bid\n    function winBid() public view returns (uint, uint, address) {\n        return (topBid.bidValue, topBid.time2Finish, topBid.bidder);\n    }\n}",
  "sourcePath": "/Users/shreemoy/Documents/DC/examples/multiVarAuction/contracts/cptAuction.sol",
  "compiler": {
    "name": "solc",
    "version": "0.5.0+commit.1d4f565a.Emscripten.clang"
  },
  "schemaVersion": "3.0.6",
  "updatedAt": "2019-04-24T04:36:50.652Z",
  "devdoc": {
    "methods": {}
  },
  "userdoc": {
    "methods": {}
  }
}